{
  "contractName": "KYC",
  "abi": [
    {
      "constant": true,
      "inputs": [],
      "name": "bankCount",
      "outputs": [
        {
          "name": "",
          "type": "uint8"
        }
      ],
      "payable": false,
      "stateMutability": "view",
      "type": "function"
    },
    {
      "inputs": [],
      "payable": false,
      "stateMutability": "nonpayable",
      "type": "constructor"
    },
    {
      "constant": false,
      "inputs": [
        {
          "name": "_userName",
          "type": "string"
        },
        {
          "name": "_customerData",
          "type": "string"
        }
      ],
      "name": "addKycRequest",
      "outputs": [
        {
          "name": "",
          "type": "uint8"
        }
      ],
      "payable": false,
      "stateMutability": "nonpayable",
      "type": "function"
    },
    {
      "constant": false,
      "inputs": [
        {
          "name": "_userName",
          "type": "string"
        },
        {
          "name": "_customerData",
          "type": "string"
        }
      ],
      "name": "addCustomer",
      "outputs": [
        {
          "name": "",
          "type": "uint8"
        }
      ],
      "payable": false,
      "stateMutability": "nonpayable",
      "type": "function"
    },
    {
      "constant": false,
      "inputs": [
        {
          "name": "_userName",
          "type": "string"
        },
        {
          "name": "_customerData",
          "type": "string"
        }
      ],
      "name": "removeKYCRequest",
      "outputs": [
        {
          "name": "",
          "type": "uint8"
        }
      ],
      "payable": false,
      "stateMutability": "nonpayable",
      "type": "function"
    },
    {
      "constant": false,
      "inputs": [
        {
          "name": "_userName",
          "type": "string"
        }
      ],
      "name": "removeCustomer",
      "outputs": [
        {
          "name": "",
          "type": "uint8"
        }
      ],
      "payable": false,
      "stateMutability": "nonpayable",
      "type": "function"
    },
    {
      "constant": false,
      "inputs": [
        {
          "name": "_userName",
          "type": "string"
        },
        {
          "name": "_password",
          "type": "bytes"
        }
      ],
      "name": "viewCustomer",
      "outputs": [
        {
          "name": "",
          "type": "string"
        }
      ],
      "payable": false,
      "stateMutability": "nonpayable",
      "type": "function"
    },
    {
      "constant": false,
      "inputs": [
        {
          "name": "_userName",
          "type": "string"
        },
        {
          "name": "_password",
          "type": "bytes"
        }
      ],
      "name": "setCustomerPassword",
      "outputs": [
        {
          "name": "",
          "type": "bool"
        }
      ],
      "payable": false,
      "stateMutability": "nonpayable",
      "type": "function"
    },
    {
      "constant": false,
      "inputs": [
        {
          "name": "_userName",
          "type": "string"
        }
      ],
      "name": "UpvoteCustomer",
      "outputs": [
        {
          "name": "",
          "type": "uint8"
        }
      ],
      "payable": false,
      "stateMutability": "nonpayable",
      "type": "function"
    },
    {
      "constant": false,
      "inputs": [
        {
          "name": "_userName",
          "type": "string"
        },
        {
          "name": "_password",
          "type": "bytes"
        },
        {
          "name": "_newcustomerData",
          "type": "string"
        }
      ],
      "name": "modifyCustomer",
      "outputs": [
        {
          "name": "",
          "type": "uint8"
        }
      ],
      "payable": false,
      "stateMutability": "nonpayable",
      "type": "function"
    },
    {
      "constant": true,
      "inputs": [
        {
          "name": "_userName",
          "type": "string"
        }
      ],
      "name": "getCustomerRating",
      "outputs": [
        {
          "name": "",
          "type": "uint8"
        }
      ],
      "payable": false,
      "stateMutability": "view",
      "type": "function"
    },
    {
      "constant": false,
      "inputs": [
        {
          "name": "_bankName",
          "type": "string"
        },
        {
          "name": "_ethAddress",
          "type": "address"
        },
        {
          "name": "_regNumber",
          "type": "string"
        }
      ],
      "name": "addBank",
      "outputs": [
        {
          "name": "",
          "type": "uint8"
        }
      ],
      "payable": false,
      "stateMutability": "nonpayable",
      "type": "function"
    },
    {
      "constant": false,
      "inputs": [
        {
          "name": "_ethAddress",
          "type": "address"
        }
      ],
      "name": "removeBank",
      "outputs": [
        {
          "name": "",
          "type": "uint8"
        }
      ],
      "payable": false,
      "stateMutability": "nonpayable",
      "type": "function"
    },
    {
      "constant": true,
      "inputs": [
        {
          "name": "_ethAddress",
          "type": "address"
        }
      ],
      "name": "getBankInitiatedKYCRequests",
      "outputs": [
        {
          "name": "",
          "type": "string[]"
        }
      ],
      "payable": false,
      "stateMutability": "view",
      "type": "function"
    },
    {
      "constant": false,
      "inputs": [
        {
          "name": "_ethAddress",
          "type": "address"
        }
      ],
      "name": "upvoteBank",
      "outputs": [
        {
          "name": "",
          "type": "uint8"
        }
      ],
      "payable": false,
      "stateMutability": "nonpayable",
      "type": "function"
    },
    {
      "constant": true,
      "inputs": [
        {
          "name": "_ethAddress",
          "type": "address"
        }
      ],
      "name": "getBankRating",
      "outputs": [
        {
          "name": "",
          "type": "uint8"
        }
      ],
      "payable": false,
      "stateMutability": "view",
      "type": "function"
    },
    {
      "constant": true,
      "inputs": [
        {
          "name": "_userName",
          "type": "string"
        }
      ],
      "name": "getAccessHistory",
      "outputs": [
        {
          "name": "",
          "type": "address"
        }
      ],
      "payable": false,
      "stateMutability": "view",
      "type": "function"
    },
    {
      "constant": true,
      "inputs": [
        {
          "name": "_ethAddress",
          "type": "address"
        }
      ],
      "name": "getBankDetails",
      "outputs": [
        {
          "components": [
            {
              "name": "ethAddress",
              "type": "address"
            },
            {
              "name": "bankName",
              "type": "string"
            },
            {
              "name": "regNumber",
              "type": "string"
            },
            {
              "name": "upvotes",
              "type": "uint8"
            },
            {
              "name": "bankRating",
              "type": "uint8"
            },
            {
              "name": "kyc_count",
              "type": "uint256"
            }
          ],
          "name": "",
          "type": "tuple"
        }
      ],
      "payable": false,
      "stateMutability": "view",
      "type": "function"
    }
  ],
  "bytecode": "0x608060405260008060146101000a81548160ff021916908360ff16021790555034801561002b57600080fd5b50336000806101000a81548173ffffffffffffffffffffffffffffffffffffffff021916908373ffffffffffffffffffffffffffffffffffffffff1602179055506137738061007b6000396000f3fe608060405234801561001057600080fd5b506004361061010a5760003560e01c80638eafe0f0116100a2578063d4a46c5111610071578063d4a46c511461034f578063dc4009a41461037f578063ea79f064146103af578063f879eb57146103df578063fc55ea9d146103fd5761010a565b80638eafe0f01461028f5780639649650c146102bf578063b8144a72146102ef578063ccfa8e711461031f5761010a565b8063429d1ad4116100de578063429d1ad4146101cf57806349fb94e2146101ff5780637c83cdf81461022f5780638117eada1461025f5761010a565b80622013491461010f57806315101e021461013f5780633190abc01461016f5780633e82ce8a1461019f575b600080fd5b61012960048036036101249190810190612973565b61042d565b6040516101369190613334565b60405180910390f35b61015960048036036101549190810190612973565b610555565b6040516101669190613513565b60405180910390f35b61018960048036036101849190810190612b5f565b61085e565b6040516101969190613535565b60405180910390f35b6101b960048036036101b4919081019061299c565b610af0565b6040516101c69190613535565b60405180910390f35b6101e960048036036101e49190810190612a5c565b610dad565b6040516101f69190613356565b60405180910390f35b61021960048036036102149190810190612973565b610ee8565b6040516102269190613535565b60405180910390f35b61024960048036036102449190810190612ac8565b611314565b6040516102569190613535565b60405180910390f35b6102796004803603610274919081019061299c565b611596565b6040516102869190613319565b60405180910390f35b6102a960048036036102a4919081019061299c565b61164c565b6040516102b69190613535565b60405180910390f35b6102d960048036036102d49190810190612973565b6116ef565b6040516102e69190613535565b60405180910390f35b61030960048036036103049190810190612973565b611947565b6040516103169190613535565b60405180910390f35b610339600480360361033491908101906129dd565b611a72565b6040516103469190613535565b60405180910390f35b61036960048036036103649190810190612b5f565b611e40565b6040516103769190613535565b60405180910390f35b61039960048036036103949190810190612b5f565b612117565b6040516103a69190613535565b60405180910390f35b6103c960048036036103c49190810190612a5c565b612271565b6040516103d69190613371565b60405180910390f35b6103e7612447565b6040516103f49190613535565b60405180910390f35b6104176004803603610412919081019061299c565b61245a565b6040516104249190613535565b60405180910390f35b6060600760008373ffffffffffffffffffffffffffffffffffffffff1673ffffffffffffffffffffffffffffffffffffffff168152602001908152602001600020805480602002602001604051908101604052809291908181526020016000905b8282101561054a578382906000526020600020018054600181600116156101000203166002900480601f0160208091040260200160405190810160405280929190818152602001828054600181600116156101000203166002900480156105365780601f1061050b57610100808354040283529160200191610536565b820191906000526020600020905b81548152906001019060200180831161051957829003601f168201915b50505050508152602001906001019061048e565b505050509050919050565b61055d6126af565b818073ffffffffffffffffffffffffffffffffffffffff16600260008373ffffffffffffffffffffffffffffffffffffffff1673ffffffffffffffffffffffffffffffffffffffff16815260200190815260200160002060000160009054906101000a900473ffffffffffffffffffffffffffffffffffffffff1673ffffffffffffffffffffffffffffffffffffffff161461062e576040517f08c379a0000000000000000000000000000000000000000000000000000000008152600401610625906133d3565b60405180910390fd5b600260008473ffffffffffffffffffffffffffffffffffffffff1673ffffffffffffffffffffffffffffffffffffffff1681526020019081526020016000206040518060c00160405290816000820160009054906101000a900473ffffffffffffffffffffffffffffffffffffffff1673ffffffffffffffffffffffffffffffffffffffff1673ffffffffffffffffffffffffffffffffffffffff168152602001600182018054600181600116156101000203166002900480601f0160208091040260200160405190810160405280929190818152602001828054600181600116156101000203166002900480156107675780601f1061073c57610100808354040283529160200191610767565b820191906000526020600020905b81548152906001019060200180831161074a57829003601f168201915b50505050508152602001600282018054600181600116156101000203166002900480601f0160208091040260200160405190810160405280929190818152602001828054600181600116156101000203166002900480156108095780601f106107de57610100808354040283529160200191610809565b820191906000526020600020905b8154815290600101906020018083116107ec57829003601f168201915b505050505081526020016003820160009054906101000a900460ff1660ff1660ff1681526020016003820160019054906101000a900460ff1660ff1660ff168152602001600482015481525050915050919050565b60008073ffffffffffffffffffffffffffffffffffffffff166001846040516108879190613302565b908152602001604051809103902060020160029054906101000a900473ffffffffffffffffffffffffffffffffffffffff1673ffffffffffffffffffffffffffffffffffffffff161461090f576040517f08c379a000000000000000000000000000000000000000000000000000000000815260040161090690613453565b60405180910390fd5b6032600260003373ffffffffffffffffffffffffffffffffffffffff1673ffffffffffffffffffffffffffffffffffffffff16815260200190815260200160002060030160019054906101000a900460ff1660ff16116109a4576040517f08c379a000000000000000000000000000000000000000000000000000000000815260040161099b90613393565b60405180910390fd5b826001846040516109b59190613302565b908152602001604051809103902060000190805190602001906109d9929190612701565b50816001846040516109eb9190613302565b90815260200160405180910390206001019080519060200190610a0f929190612701565b5033600184604051610a219190613302565b908152602001604051809103902060020160026101000a81548173ffffffffffffffffffffffffffffffffffffffff021916908373ffffffffffffffffffffffffffffffffffffffff1602179055506000600184604051610a829190613302565b908152602001604051809103902060020160016101000a81548160ff021916908360ff1602179055506000600184604051610abd9190613302565b908152602001604051809103902060020160006101000a81548160ff021916908360ff1602179055506001905092915050565b600081610b1d600182604051610b069190613302565b908152602001604051809103902060000182612570565b610b5c576040517f08c379a0000000000000000000000000000000000000000000000000000000008152600401610b5390613493565b60405180910390fd5b6000600484604051610b6e9190613302565b908152602001604051809103902060003373ffffffffffffffffffffffffffffffffffffffff1673ffffffffffffffffffffffffffffffffffffffff1681526020019081526020016000205414610bfa576040517f08c379a0000000000000000000000000000000000000000000000000000000008152600401610bf190613433565b60405180910390fd5b600183604051610c0a9190613302565b9081526020016040518091039020600201600181819054906101000a900460ff168092919060010191906101000a81548160ff021916908360ff160217905550506001600484604051610c5d9190613302565b908152602001604051809103902060003373ffffffffffffffffffffffffffffffffffffffff1673ffffffffffffffffffffffffffffffffffffffff16815260200190815260200160002081905550600060149054906101000a900460ff1660ff166064600185604051610cd19190613302565b908152602001604051809103902060020160019054906101000a900460ff160260ff1681610cfb57fe5b04600184604051610d0c9190613302565b908152602001604051809103902060020160006101000a81548160ff021916908360ff1602179055506032600184604051610d479190613302565b908152602001604051809103902060020160009054906101000a900460ff1660ff161115610da35782600684604051610d809190613302565b90815260200160405180910390209080519060200190610da1929190612701565b505b6001915050919050565b600082610dda600182604051610dc39190613302565b908152602001604051809103902060000182612570565b610e19576040517f08c379a0000000000000000000000000000000000000000000000000000000008152600401610e1090613493565b60405180910390fd5b6000600185604051610e2b9190613302565b90815260200160405180910390206003018054600181600116156101000203166002900490501480610e9857508280519060200120600185604051610e709190613302565b9081526020016040518091039020600301604051610e8e91906132eb565b6040518091039020145b15610edc5782600185604051610eae9190613302565b90815260200160405180910390206003019080519060200190610ed2929190612781565b5060019150610ee1565b600091505b5092915050565b6000818073ffffffffffffffffffffffffffffffffffffffff16600260008373ffffffffffffffffffffffffffffffffffffffff1673ffffffffffffffffffffffffffffffffffffffff16815260200190815260200160002060000160009054906101000a900473ffffffffffffffffffffffffffffffffffffffff1673ffffffffffffffffffffffffffffffffffffffff1614610fbb576040517f08c379a0000000000000000000000000000000000000000000000000000000008152600401610fb2906133d3565b60405180910390fd5b6000600560008573ffffffffffffffffffffffffffffffffffffffff1673ffffffffffffffffffffffffffffffffffffffff16815260200190815260200160002060003373ffffffffffffffffffffffffffffffffffffffff1673ffffffffffffffffffffffffffffffffffffffff168152602001908152602001600020541461107a576040517f08c379a000000000000000000000000000000000000000000000000000000000815260040161107190613433565b60405180910390fd5b3373ffffffffffffffffffffffffffffffffffffffff16600260008573ffffffffffffffffffffffffffffffffffffffff1673ffffffffffffffffffffffffffffffffffffffff16815260200190815260200160002060000160009054906101000a900473ffffffffffffffffffffffffffffffffffffffff1673ffffffffffffffffffffffffffffffffffffffff16141561114b576040517f08c379a000000000000000000000000000000000000000000000000000000000815260040161114290613473565b60405180910390fd5b600260008473ffffffffffffffffffffffffffffffffffffffff1673ffffffffffffffffffffffffffffffffffffffff168152602001908152602001600020600301600081819054906101000a900460ff168092919060010191906101000a81548160ff021916908360ff160217905550506001600560008573ffffffffffffffffffffffffffffffffffffffff1673ffffffffffffffffffffffffffffffffffffffff16815260200190815260200160002060003373ffffffffffffffffffffffffffffffffffffffff1673ffffffffffffffffffffffffffffffffffffffff16815260200190815260200160002081905550600060149054906101000a900460ff1660ff166064600260008673ffffffffffffffffffffffffffffffffffffffff1673ffffffffffffffffffffffffffffffffffffffff16815260200190815260200160002060030160009054906101000a900460ff160260ff16816112af57fe5b04600260008573ffffffffffffffffffffffffffffffffffffffff1673ffffffffffffffffffffffffffffffffffffffff16815260200190815260200160002060030160016101000a81548160ff021916908360ff1602179055506001915050919050565b60008361134160018260405161132a9190613302565b908152602001604051809103902060000182612570565b611380576040517f08c379a000000000000000000000000000000000000000000000000000000000815260040161137790613493565b60405180910390fd5b848460606040518060400160405280600181526020017f30000000000000000000000000000000000000000000000000000000000000008152509050600115156113ca8484610dad565b151514806113e5575080805190602001208280519060200120145b611424576040517f08c379a000000000000000000000000000000000000000000000000000000000815260040161141b906133b3565b60405180910390fd5b856001896040516114359190613302565b90815260200160405180910390206001019080519060200190611459929190612701565b503360018960405161146b9190613302565b908152602001604051809103902060020160026101000a81548173ffffffffffffffffffffffffffffffffffffffff021916908373ffffffffffffffffffffffffffffffffffffffff1602179055506114e16006896040516114cd9190613302565b908152602001604051809103902089612570565b156115875760006001896040516114f89190613302565b908152602001604051809103902060020160016101000a81548160ff021916908360ff16021790555060006001896040516115339190613302565b908152602001604051809103902060020160006101000a81548160ff021916908360ff16021790555060068860405161156c9190613302565b908152602001604051809103902060006115869190612801565b5b60019450505050509392505050565b6000816115c36001826040516115ac9190613302565b908152602001604051809103902060000182612570565b611602576040517f08c379a00000000000000000000000000000000000000000000000000000000081526004016115f990613493565b60405180910390fd5b6001836040516116129190613302565b908152602001604051809103902060020160029054906101000a900473ffffffffffffffffffffffffffffffffffffffff16915050919050565b6000816116796001826040516116629190613302565b908152602001604051809103902060000182612570565b6116b8576040517f08c379a00000000000000000000000000000000000000000000000000000000081526004016116af90613493565b60405180910390fd5b6001836040516116c89190613302565b908152602001604051809103902060020160009054906101000a900460ff16915050919050565b60003373ffffffffffffffffffffffffffffffffffffffff166000809054906101000a900473ffffffffffffffffffffffffffffffffffffffff1673ffffffffffffffffffffffffffffffffffffffff1614611780576040517f08c379a0000000000000000000000000000000000000000000000000000000008152600401611777906134f3565b60405180910390fd5b818073ffffffffffffffffffffffffffffffffffffffff16600260008373ffffffffffffffffffffffffffffffffffffffff1673ffffffffffffffffffffffffffffffffffffffff16815260200190815260200160002060000160009054906101000a900473ffffffffffffffffffffffffffffffffffffffff1673ffffffffffffffffffffffffffffffffffffffff1614611851576040517f08c379a0000000000000000000000000000000000000000000000000000000008152600401611848906133d3565b60405180910390fd5b600260008473ffffffffffffffffffffffffffffffffffffffff1673ffffffffffffffffffffffffffffffffffffffff168152602001908152602001600020600080820160006101000a81549073ffffffffffffffffffffffffffffffffffffffff02191690556001820160006118c89190612801565b6002820160006118d89190612801565b6003820160006101000a81549060ff02191690556003820160016101000a81549060ff0219169055600482016000905550506000601481819054906101000a900460ff16809291906001900391906101000a81548160ff021916908360ff160217905550506001915050919050565b6000818073ffffffffffffffffffffffffffffffffffffffff16600260008373ffffffffffffffffffffffffffffffffffffffff1673ffffffffffffffffffffffffffffffffffffffff16815260200190815260200160002060000160009054906101000a900473ffffffffffffffffffffffffffffffffffffffff1673ffffffffffffffffffffffffffffffffffffffff1614611a1a576040517f08c379a0000000000000000000000000000000000000000000000000000000008152600401611a11906133d3565b60405180910390fd5b600260008473ffffffffffffffffffffffffffffffffffffffff1673ffffffffffffffffffffffffffffffffffffffff16815260200190815260200160002060030160019054906101000a900460ff16915050919050565b60003373ffffffffffffffffffffffffffffffffffffffff166000809054906101000a900473ffffffffffffffffffffffffffffffffffffffff1673ffffffffffffffffffffffffffffffffffffffff1614611b03576040517f08c379a0000000000000000000000000000000000000000000000000000000008152600401611afa906134f3565b60405180910390fd5b600073ffffffffffffffffffffffffffffffffffffffff16600260008573ffffffffffffffffffffffffffffffffffffffff1673ffffffffffffffffffffffffffffffffffffffff16815260200190815260200160002060000160009054906101000a900473ffffffffffffffffffffffffffffffffffffffff1673ffffffffffffffffffffffffffffffffffffffff1614611bd4576040517f08c379a0000000000000000000000000000000000000000000000000000000008152600401611bcb90613413565b60405180910390fd5b83600260008573ffffffffffffffffffffffffffffffffffffffff1673ffffffffffffffffffffffffffffffffffffffff1681526020019081526020016000206001019080519060200190611c2a929190612701565b5082600260008573ffffffffffffffffffffffffffffffffffffffff1673ffffffffffffffffffffffffffffffffffffffff16815260200190815260200160002060000160006101000a81548173ffffffffffffffffffffffffffffffffffffffff021916908373ffffffffffffffffffffffffffffffffffffffff16021790555081600260008573ffffffffffffffffffffffffffffffffffffffff1673ffffffffffffffffffffffffffffffffffffffff1681526020019081526020016000206002019080519060200190611d02929190612701565b506000600260008573ffffffffffffffffffffffffffffffffffffffff1673ffffffffffffffffffffffffffffffffffffffff16815260200190815260200160002060030160006101000a81548160ff021916908360ff1602179055506000600260008573ffffffffffffffffffffffffffffffffffffffff1673ffffffffffffffffffffffffffffffffffffffff16815260200190815260200160002060030160016101000a81548160ff021916908360ff1602179055506000600260008573ffffffffffffffffffffffffffffffffffffffff1673ffffffffffffffffffffffffffffffffffffffff168152602001908152602001600020600401819055506000601481819054906101000a900460ff168092919060010191906101000a81548160ff021916908360ff16021790555050600190509392505050565b60008073ffffffffffffffffffffffffffffffffffffffff16600383604051611e699190613302565b908152602001604051809103902060020160009054906101000a900473ffffffffffffffffffffffffffffffffffffffff1673ffffffffffffffffffffffffffffffffffffffff1614611ef1576040517f08c379a0000000000000000000000000000000000000000000000000000000008152600401611ee8906134d3565b60405180910390fd5b81600383604051611f029190613302565b90815260200160405180910390206001019080519060200190611f26929190612701565b5082600383604051611f389190613302565b90815260200160405180910390206000019080519060200190611f5c929190612701565b5033600383604051611f6e9190613302565b908152602001604051809103902060020160006101000a81548173ffffffffffffffffffffffffffffffffffffffff021916908373ffffffffffffffffffffffffffffffffffffffff1602179055506032600260003373ffffffffffffffffffffffffffffffffffffffff1673ffffffffffffffffffffffffffffffffffffffff16815260200190815260200160002060030160019054906101000a900460ff1660ff16116120565760006003836040516120299190613302565b908152602001604051809103902060020160146101000a81548160ff021916908315150217905550612091565b60016003836040516120689190613302565b908152602001604051809103902060020160146101000a81548160ff0219169083151502179055505b600760003373ffffffffffffffffffffffffffffffffffffffff1673ffffffffffffffffffffffffffffffffffffffff16815260200190815260200160002082908060018154018082558091505090600182039060005260206000200160009091929091909150908051906020019061210b929190612701565b50506001905092915050565b600061214360038360405161212c9190613302565b908152602001604051809103902060010183612570565b612182576040517f08c379a0000000000000000000000000000000000000000000000000000000008152600401612179906134b3565b60405180910390fd5b6121ac6003836040516121959190613302565b908152602001604051809103902060000184612570565b6121eb576040517f08c379a00000000000000000000000000000000000000000000000000000000081526004016121e2906133f3565b60405180910390fd5b6003826040516121fb9190613302565b90815260200160405180910390206000808201600061221a9190612801565b60018201600061222a9190612801565b6002820160006101000a81549073ffffffffffffffffffffffffffffffffffffffff02191690556002820160146101000a81549060ff021916905550506001905092915050565b60608261229e6001826040516122879190613302565b908152602001604051809103902060000182612570565b6122dd576040517f08c379a00000000000000000000000000000000000000000000000000000000081526004016122d490613493565b60405180910390fd5b838360606040518060400160405280600181526020017f30000000000000000000000000000000000000000000000000000000000000008152509050600115156123278484610dad565b15151480612342575080805190602001208280519060200120145b612381576040517f08c379a0000000000000000000000000000000000000000000000000000000008152600401612378906133b3565b60405180910390fd5b6001876040516123919190613302565b90815260200160405180910390206001018054600181600116156101000203166002900480601f0160208091040260200160405190810160405280929190818152602001828054600181600116156101000203166002900480156124365780601f1061240b57610100808354040283529160200191612436565b820191906000526020600020905b81548152906001019060200180831161241957829003601f168201915b505050505094505050505092915050565b600060149054906101000a900460ff1681565b6000816124876001826040516124709190613302565b908152602001604051809103902060000182612570565b6124c6576040517f08c379a00000000000000000000000000000000000000000000000000000000081526004016124bd90613493565b60405180910390fd5b6001836040516124d69190613302565b9081526020016040518091039020600080820160006124f59190612801565b6001820160006125059190612801565b6002820160006101000a81549060ff02191690556002820160016101000a81549060ff02191690556002820160026101000a81549073ffffffffffffffffffffffffffffffffffffffff02191690556003820160006125649190612849565b50506001915050919050565b6000808390506060839050805182805460018160011615610100020316600290049050146125a3576000925050506126a9565b60008090505b828054600181600116156101000203166002900490508110156126a1578181815181106125d257fe5b602001015160f81c60f81b7effffffffffffffffffffffffffffffffffffffffffffffffffffffffffffff1916838281546001816001161561010002031660029004811061261c57fe5b81546001161561263b5790600052602060002090602091828204019190065b9054901a7f0100000000000000000000000000000000000000000000000000000000000000027effffffffffffffffffffffffffffffffffffffffffffffffffffffffffffff19161461269457600093505050506126a9565b80806001019150506125a9565b506001925050505b92915050565b6040518060c00160405280600073ffffffffffffffffffffffffffffffffffffffff1681526020016060815260200160608152602001600060ff168152602001600060ff168152602001600081525090565b828054600181600116156101000203166002900490600052602060002090601f016020900481019282601f1061274257805160ff1916838001178555612770565b82800160010185558215612770579182015b8281111561276f578251825591602001919060010190612754565b5b50905061277d9190612891565b5090565b828054600181600116156101000203166002900490600052602060002090601f016020900481019282601f106127c257805160ff19168380011785556127f0565b828001600101855582156127f0579182015b828111156127ef5782518255916020019190600101906127d4565b5b5090506127fd9190612891565b5090565b50805460018160011615610100020316600290046000825580601f106128275750612846565b601f0160209004906000526020600020908101906128459190612891565b5b50565b50805460018160011615610100020316600290046000825580601f1061286f575061288e565b601f01602090049060005260206000209081019061288d9190612891565b5b50565b6128b391905b808211156128af576000816000905550600101612897565b5090565b90565b6000813590506128c581613719565b92915050565b600082601f8301126128dc57600080fd5b81356128ef6128ea8261357d565b613550565b9150808252602083016020830185838301111561290b57600080fd5b6129168382846136c6565b50505092915050565b600082601f83011261293057600080fd5b813561294361293e826135a9565b613550565b9150808252602083016020830185838301111561295f57600080fd5b61296a8382846136c6565b50505092915050565b60006020828403121561298557600080fd5b6000612993848285016128b6565b91505092915050565b6000602082840312156129ae57600080fd5b600082013567ffffffffffffffff8111156129c857600080fd5b6129d48482850161291f565b91505092915050565b6000806000606084860312156129f257600080fd5b600084013567ffffffffffffffff811115612a0c57600080fd5b612a188682870161291f565b9350506020612a29868287016128b6565b925050604084013567ffffffffffffffff811115612a4657600080fd5b612a528682870161291f565b9150509250925092565b60008060408385031215612a6f57600080fd5b600083013567ffffffffffffffff811115612a8957600080fd5b612a958582860161291f565b925050602083013567ffffffffffffffff811115612ab257600080fd5b612abe858286016128cb565b9150509250929050565b600080600060608486031215612add57600080fd5b600084013567ffffffffffffffff811115612af757600080fd5b612b038682870161291f565b935050602084013567ffffffffffffffff811115612b2057600080fd5b612b2c868287016128cb565b925050604084013567ffffffffffffffff811115612b4957600080fd5b612b558682870161291f565b9150509250925092565b60008060408385031215612b7257600080fd5b600083013567ffffffffffffffff811115612b8c57600080fd5b612b988582860161291f565b925050602083013567ffffffffffffffff811115612bb557600080fd5b612bc18582860161291f565b9150509250929050565b6000612bd78383612d79565b905092915050565b612be881613671565b82525050565b612bf781613671565b82525050565b6000612c08826135fa565b612c128185613628565b935083602082028501612c24856135d5565b8060005b85811015612c605784840389528151612c418582612bcb565b9450612c4c8361361b565b925060208a01995050600181019050612c28565b50829750879550505050505092915050565b612c7b81613683565b82525050565b600081546001811660008114612c9e5760018114612cc357612d07565b607f6002830416612caf8187613639565b955060ff1983168652808601935050612d07565b60028204612cd18187613639565b9550612cdc856135e5565b60005b82811015612cfe57815481890152600182019150602081019050612cdf565b82880195505050505b505092915050565b6000612d1a82613610565b612d248185613655565b9350612d348185602086016136d5565b612d3d81613708565b840191505092915050565b6000612d5382613610565b612d5d8185613666565b9350612d6d8185602086016136d5565b80840191505092915050565b6000612d8482613605565b612d8e8185613644565b9350612d9e8185602086016136d5565b612da781613708565b840191505092915050565b6000612dbf604b83613655565b91507f5468652042616e6b206973206e6f74207065726d697373696f6e65642020746f60008301527f206164642074686520637573746f6d65722062656361757365206f662069747360208301527f206c6f7720726174696e670000000000000000000000000000000000000000006040830152606082019050919050565b6000612e4b603983613655565b91507f506c6561736520747970652074686520636f72726563742070617373776f726460008301527f20746f207669657720637573746f6d65722064657461696c73000000000000006020830152604082019050919050565b6000612eb1601e83613655565b91507f5468652042616e6b204164647265737320646f65736e742065786973747300006000830152602082019050919050565b6000612ef1602883613655565b91507f54686520757365724e616d6520646f65736e7420657869737420696e206b796360008301527f52657175657374730000000000000000000000000000000000000000000000006020830152604082019050919050565b6000612f57601b83613655565b91507f5468652042616e6b20697320616c72656164792070726573656e7400000000006000830152602082019050919050565b6000612f97601a83613655565b91507f5468652042616e6b2068617320616c726561647920766f7465640000000000006000830152602082019050919050565b6000612fd7605683613655565b91507f5468697320637573746f6d657220697320616c72656164792070726573656e7460008301527f2c20706c656173652063616c6c206d6f64696679437573746f6d657220746f2060208301527f656469742074686520637573746f6d65722064617461000000000000000000006040830152606082019050919050565b6000613063602183613655565b91507f412042616e6b2063616e6e6f74207570766f746520697473206f776e2042616e60008301527f6b000000000000000000000000000000000000000000000000000000000000006020830152604082019050919050565b60006130c9601983613655565b91507f54686520757365724e616d6520646f65736e74206578697374000000000000006000830152602082019050919050565b6000613109602983613655565b91507f5468652075736572204461746120646f65736e7420657869737420696e206b7960008301527f63526571756573747300000000000000000000000000000000000000000000006020830152604082019050919050565b600061316f603e83613655565b91507f54686973207573657220616c7265616479206861732061204b5943207265717560008301527f65737420776974682073616d65206461746120696e2070726f636573732e00006020830152604082019050919050565b60006131d5602683613655565b91507f5468652061646d696e2063616e206f6e6c79206164642f72656d6f766520746860008301527f652042616e6b00000000000000000000000000000000000000000000000000006020830152604082019050919050565b600060c0830160008301516132466000860182612bdf565b506020830151848203602086015261325e8282612d79565b915050604083015184820360408601526132788282612d79565b915050606083015161328d60608601826132cd565b5060808301516132a060808601826132cd565b5060a08301516132b360a08601826132be565b508091505092915050565b6132c7816136af565b82525050565b6132d6816136b9565b82525050565b6132e5816136b9565b82525050565b60006132f78284612c81565b915081905092915050565b600061330e8284612d48565b915081905092915050565b600060208201905061332e6000830184612bee565b92915050565b6000602082019050818103600083015261334e8184612bfd565b905092915050565b600060208201905061336b6000830184612c72565b92915050565b6000602082019050818103600083015261338b8184612d0f565b905092915050565b600060208201905081810360008301526133ac81612db2565b9050919050565b600060208201905081810360008301526133cc81612e3e565b9050919050565b600060208201905081810360008301526133ec81612ea4565b9050919050565b6000602082019050818103600083015261340c81612ee4565b9050919050565b6000602082019050818103600083015261342c81612f4a565b9050919050565b6000602082019050818103600083015261344c81612f8a565b9050919050565b6000602082019050818103600083015261346c81612fca565b9050919050565b6000602082019050818103600083015261348c81613056565b9050919050565b600060208201905081810360008301526134ac816130bc565b9050919050565b600060208201905081810360008301526134cc816130fc565b9050919050565b600060208201905081810360008301526134ec81613162565b9050919050565b6000602082019050818103600083015261350c816131c8565b9050919050565b6000602082019050818103600083015261352d818461322e565b905092915050565b600060208201905061354a60008301846132dc565b92915050565b6000604051905081810181811067ffffffffffffffff8211171561357357600080fd5b8060405250919050565b600067ffffffffffffffff82111561359457600080fd5b601f19601f8301169050602081019050919050565b600067ffffffffffffffff8211156135c057600080fd5b601f19601f8301169050602081019050919050565b6000819050602082019050919050565b60008190508160005260206000209050919050565b600081519050919050565b600081519050919050565b600081519050919050565b6000602082019050919050565b600082825260208201905092915050565b600081905092915050565b600082825260208201905092915050565b600082825260208201905092915050565b600081905092915050565b600061367c8261368f565b9050919050565b60008115159050919050565b600073ffffffffffffffffffffffffffffffffffffffff82169050919050565b6000819050919050565b600060ff82169050919050565b82818337600083830152505050565b60005b838110156136f35780820151818401526020810190506136d8565b83811115613702576000848401525b50505050565b6000601f19601f8301169050919050565b61372281613671565b811461372d57600080fd5b5056fea365627a7a7230582000fe02be8a5f7664339fc32bdcac14d742daaa852ee86a1cd8c1172874078f136c6578706572696d656e74616cf564736f6c63430005090040",
  "source": "pragma solidity ^0.5.9;\npragma experimental ABIEncoderV2;\n\ncontract KYC {\n\n  \n    address admin;\n    \n    // Struct for a customer\n    struct Customer {\n        string userName;   //unique\n        string data_hash;  //unique\n        uint8 userRating;\n        uint8 upvotes;\n        address bank;\n        bytes password;\n    }\n\n   // Struct for a Bank\n    struct Bank {\n        address ethAddress;   //unique  \n        string bankName;\n        string regNumber;       //unique   \n        uint8 upvotes;\n        uint8 bankRating;\n        uint kyc_count;\n   }\n\n\n   // Struct for a KYC Request\n    struct KYCRequest {\n        string userName;     \n        string data_hash;  //unique\n        address bank;\n        bool isAllowed;\n    }\n\n    // a variable to keep track of the count of the number of banks \n    uint8 public bankCount = 0;\n\n    /*\n    Mapping a customer's username to the Customer struct\n    We also keep an array of all keys of the mapping to be able to loop through them when required.\n     */\n    mapping(string => Customer) customers;\n   // string[] customerNames;\n   // string[] verifiedCustomerNamesList;\n\n    /*\n    Mapping a bank's address to the Bank Struct\n    We also keep an array of all keys of the mapping to be able to loop through them when required.\n     */\n    mapping(address => Bank) banks;\n    //address[] bankAddresses;\n\n    /*\n    Mapping a customer's Data Hash to KYC request captured for that customer.\n    This mapping is used to keep track of every kycRequest initiated for every customer by a bank.\n     */\n    mapping(string => KYCRequest) kycRequests;\n    //string[] customerDataList;\n\n    /*\n    Mapping a customer's user name with a bank's address\n    This mapping is used to keep track of every upvote given by a bank to a customer\n     */\n    mapping(string => mapping(address => uint256)) upvotes;\n    \n    /*\n    Mapping a  bank's address with other bank's address\n    This mapping is used to keep track of every upvote given by a bank to other bank\n     */\n    mapping(address => mapping(address => uint256)) upvotesBank;\n    \n    /*\n    Mapping a  username to the same username \n    This mapping is used to keep track of the verifiedCustomerNamesList \n     */\n    mapping(string => string) verifiedCustomerNamesList;\n \n    /**\n     * Constructor of the contract.\n     * We save the contract's admin as the account which deployed this contract.\n     */\n    constructor() public {\n        admin = msg.sender;\n    }\n\n    /**\n     * Record a new KYC request on behalf of a customer\n     * The sender of message call is the bank itself\n     * @param  {string} _userName The name of the customer for whom KYC is to be done\n     * @param  {address} _bankEthAddress The ethAddress of the bank issuing this request\n     * @return {bool}        True if this function execution was successful\n     */\n    function addKycRequest(string memory _userName, string memory _customerData) public returns (uint8) {\n        // Check that the user's KYC has not been done before, the Bank is a valid bank and it is allowed to perform KYC.\n        require(kycRequests[_customerData].bank == address(0), \"This user already has a KYC request with same data in process.\");\n        //bytes memory uname = new bytes(bytes(_userName));\n        // Save the timestamp for this KYC request.\n        kycRequests[_customerData].data_hash = _customerData;\n        kycRequests[_customerData].userName = _userName;\n        kycRequests[_customerData].bank = msg.sender;\n            if(banks[msg.sender].bankRating <= 50 ){ //bankRating was multiplied with 100 as suggested in the online assignment session as solidity doesnt support floating point\n                kycRequests[_customerData].isAllowed = false;\n           } else {\n                 kycRequests[_customerData].isAllowed = true;\n          }\n       // customerDataList.push(_customerData);\n       // pushing the data into mapping since it is required for getBankInitiatedKYCRequests function .\n       bankKYCRequests[msg.sender].push(_customerData);\n        return 1;\n    }\n\n    /**\n     * Add a new customer\n     * @param {string} _userName Name of the customer to be added\n     * @param {string} _hash Hash of the customer's ID submitted for KYC\n     */\n    function addCustomer(string memory _userName, string memory _customerData) public returns (uint8) {\n        require(customers[_userName].bank == address(0), \"This customer is already present, please call modifyCustomer to edit the customer data\");\n        require(banks[msg.sender].bankRating > 50, \"The Bank is not permissioned  to add the customer because of its low rating\");\n        customers[_userName].userName = _userName;\n        customers[_userName].data_hash = _customerData;\n        customers[_userName].bank = msg.sender;\n        customers[_userName].upvotes = 0;\n        customers[_userName].userRating = 0;\n        //customerNames.push(_userName);\n        return 1;\n    }\n     \n     \n    /**\n     * Remove KYC request\n     * @param  {string} _userName Name of the customer\n     * @return {uint8} 1 indicates success, otherwise error msg is prompted\n     */\n    function removeKYCRequest(string memory _userName, string memory _customerData)  public returns (uint8) {\n        //check if customerData exists in the kycRequests\n        require(stringsEquals(kycRequests[_customerData].data_hash, _customerData) , \"The user Data doesnt exist in kycRequests\");\n        require(stringsEquals(kycRequests[_customerData].userName, _userName), \"The userName doesnt exist in kycRequests\");\n                 delete kycRequests[_customerData];\n                 return 1;\n        }\n        \n    // modifier to check the existence of userName\n    modifier isUsernameExists(string memory _userName) {\n        require(stringsEquals(customers[_userName].userName, _userName), \"The userName doesnt exist\");\n        _;\n    }\n    \n    /**\n     * Remove customer information\n     * @param  {string} _userName Name of the customer\n     * @return {uint8} 1 indicates success, otherwise error msg is prompted\n     */\n    function removeCustomer(string memory _userName) isUsernameExists(_userName) public returns (uint8) {\n        delete customers[_userName];\n            return 1;\n    }\n        \n    // modifier to check whether the password is set for the customerData or the incoming password should be equal to \"0\" \n    modifier isPasswordSet(string memory _userName, bytes memory _password) {\n        bytes memory c = \"0\";\n        // The hashes of the incoming password and \"0\" are compared using keccak256\n        require(setCustomerPassword(_userName, _password) == true || (keccak256(_password) == keccak256(c)),\"Please type the correct password to view customer details\"); \n        _;\n    }\n    \n    /**\n     * View customer information\n     * @param  {public} _userName \n     * @param  {public} _password\n     * @return {string} the hash of the customer data in form of a string\n     */\n    function viewCustomer(string memory _userName, bytes memory _password) isUsernameExists(_userName) isPasswordSet(_userName, _password) public returns (string memory) {\n               \n            return customers[_userName].data_hash;\n        }\n    \n    /**\n     * Set password for the customers\n     * @param  {public} _userName Name of the customer\n     * @param  {public} _password password for the customer\n     * @return {bool}  true indicates passwordSet, false indicates password not set\n     */\n    function setCustomerPassword(string memory _userName, bytes memory _password) isUsernameExists(_userName) public  returns (bool) {\n        if(customers[_userName].password.length == 0 || keccak256(customers[_userName].password) == keccak256( _password)) \n            {\n              customers[_userName].password = _password;\n              return true;\n            } \n        return false;\n    }\n            \n\n    /**\n     * Add a new upvote from a bank\n     * @param {public} _userName Name of the customer to be upvoted\n     * @return {uint8}  on failure if userName doesnt exist error message is thrown, 1 indicates success\n     */\n    function UpvoteCustomer(string memory _userName) isUsernameExists(_userName) public returns (uint8) {\n        require(upvotes[_userName][msg.sender] == 0 , \"The Bank has already voted\");\n        customers[_userName].upvotes++;\n        upvotes[_userName][msg.sender] = 1; //setting  the upVote to 1 given by Bank to this customer in the mapping upVotes\n        customers[_userName].userRating= (customers[_userName].upvotes * 100)/bankCount;\n                    if((customers[_userName].userRating) > 50) \n                    {   // the calculated rating is multiplied with 100 was suggested in the assignment online session as solidity doesnt support floating point\n                        verifiedCustomerNamesList[_userName] = _userName;\n                    }\n            return 1;\n        }\n        \n    /**\n     * Edit customer information\n     * @param  {public} _userName Name of the customer\n     * @param  {public} _password password set for the customer data\n     * @param  {public} _hash New hash of the updated ID provided by the customer\n     * @return {uint8}  an error message is thrown if username or password doesnt exists on failure, 1 indicates success\n     */\n    function modifyCustomer(string memory _userName, bytes memory _password, string memory _newcustomerData) isUsernameExists(_userName) isPasswordSet(_userName,_password) public returns (uint8) {\n           customers[_userName].data_hash = _newcustomerData;\n           customers[_userName].bank = msg.sender; //updating the banks address since it is modifying the customer data\n              if(stringsEquals(verifiedCustomerNamesList[_userName],_userName))\n                     {\n                        customers[_userName].upvotes = 0;\n                        customers[_userName].userRating = 0;\n                        delete verifiedCustomerNamesList[_userName];\n                     }\n        return 1;\n    }\n    \n    /**\n     * get Customer Rating\n     * @param  {public} _userName Name of the customer\n     * @return {uint}  userRating is returned\n     * if the username doesnt match error message is thrown\n     */\n    \n    function getCustomerRating(string memory _userName) isUsernameExists(_userName) public view returns(uint8) {\n               return customers[_userName].userRating;\n    }\n    \n    \n     // only admin has the privilege to add the Bank\n     modifier onlyAdmin() {\n        require( admin == msg.sender ,\"The admin can only add/remove the Bank\");\n        _;\n    }\n    \n    // modifier to check bank address exists\n    modifier isBankAddressExists(address _ethAddress) {\n        require(banks[_ethAddress].ethAddress == _ethAddress, \"The Bank Address doesnt exists\");\n        _;\n    }\n    \n    \n    /**\n     * Add bank - only admin has the access to add the bank\n     * \n     * @param  {string} _bankName \n     * @param  {address} _ethAddress \n     * @param  {string} _regNumber\n     * @param  {uint} upvotes;\n     * @param  {uint8} bankRating;\n     * @param  {uint} kyc_count;\n     * @return {uint} 1  if this function execution was successful\n     */\n     \n     function addBank(string memory _bankName, address _ethAddress, string memory _regNumber) public onlyAdmin returns(uint8) {\n        //check bank already exists\n        require(banks[_ethAddress].ethAddress == address(0), \"The Bank is already present\");\n         banks[_ethAddress].bankName = _bankName;\n         banks[_ethAddress].ethAddress = _ethAddress;\n         banks[_ethAddress].regNumber = _regNumber;\n         banks[_ethAddress].upvotes = 0;\n         banks[_ethAddress].bankRating = 0;\n         banks[_ethAddress].kyc_count = 0;\n         bankCount++;\n       //bankAddresses.push(_ethAddress);\n         return 1;\n         \n     }\n     /**\n     * Remove Bank\n     * @param  {address}  Banks unique Adress\n     * @return {uint8} A 0 indicates failure, 1 indicates success\n     */\n    function removeBank(address _ethAddress) public onlyAdmin isBankAddressExists(_ethAddress) returns (uint8) {\n         delete banks[_ethAddress];\n         bankCount--;\n         return 1;\n     }\n     \n    /**\n     * get the kycRequests initiated by a Bank\n     * @param  {public} uniqueBankAdress\n     * @return   list of kycRequests is returned\n     * @return error message is prompted if bankAdrress is not found\n     */\n    \n    //mapping a bank address to the  string array of specificBankKYCRequestsList\n     mapping(address => string[]) bankKYCRequests;\n    \n   function getBankInitiatedKYCRequests(address _ethAddress)  public view returns(string[] memory) {\n       return bankKYCRequests[_ethAddress];\n   }\n   \n    /**\n     * Add a new upvote from a bank to a bank\n     * update the bankrating\n     * @param {public} _eththAddress as the input parameter for which vote is casted\n     * @return {uint8}  on failure if bankaddress is not found error message is thrown, 1 indicates success\n     */\n    function upvoteBank(address _ethAddress) isBankAddressExists(_ethAddress) public returns (uint8) {\n              require(upvotesBank[_ethAddress][msg.sender] == 0 , \"The Bank has already voted\");\n              require(banks[_ethAddress].ethAddress != msg.sender, \"A Bank cannot upvote its own Bank\");\n              banks[_ethAddress].upvotes++;\n              upvotesBank[_ethAddress][msg.sender] = 1;    //setting the value to one since the bank has voted to this bank\n              banks[_ethAddress].bankRating = (banks[_ethAddress].upvotes * 100)/ bankCount;\n              return 1;\n        }\n        \n        \n    /**\n     * get Bank Rating\n     * @param  {public} _ethAddress of the bank\n     * @return {uint}  bankRating is returned\n     * @return error message is thrown if bank address not found\n     */\n    \n    function getBankRating(address _ethAddress) isBankAddressExists(_ethAddress) public view returns(uint8) {\n              return banks[_ethAddress].bankRating;\n        }\n    \n    /**\n     * fetch the bank details which made the last changes to the customer data\n     * @param  {public} _userName\n     * @return {uint}  bankAddress is returned\n     * @return error message is thrown if userName doesnt exists\n     */\n     \n     function getAccessHistory(string memory _userName) isUsernameExists(_userName) public view returns(address) {\n           return customers[_userName].bank; //fetching the bank address from customers mapping since the bank address was updated in the modifyCustomer function\n         }\n    \n    /**\n     * fetch the bank details \n     * @param  {public} _ethAddress of the bank\n     * @return Bank struct is returned\n     * @return error message is thrown if bankAddress doesnt exists\n     */\n     \n      function getBankDetails(address _ethAddress) isBankAddressExists(_ethAddress) public view returns(Bank memory) {\n            return banks[_ethAddress];\n        }\n    \n        \n// if you are using string, you can use the following function to compare two strings\n// function to compare two string value\n// This is an internal fucntion to compare string values\n// @Params - String a and String b are passed as Parameters\n// @return - This function returns true if strings are matched and false if the strings are not matching\n    function stringsEquals(string storage _a, string memory _b) internal view returns (bool) {\n        bytes storage a = bytes(_a);\n        bytes memory b = bytes(_b); \n        if (a.length != b.length)\n            return false;\n        // @todo unroll this loop\n        for (uint i = 0; i < a.length; i ++)\n        {\n            if (a[i] != b[i])\n                return false;\n        }\n        return true;\n    }\n\n}",
  "sourcePath": "/home/archana/KYC-SC/contracts/KYC.sol",
  "compiler": {
    "name": "solc",
    "version": "0.5.9+commit.e560f70d.Emscripten.clang"
  },
  "schemaVersion": "3.0.22",
  "updatedAt": "2020-02-12T08:29:12.328Z",
  "devdoc": {
    "methods": {
      "UpvoteCustomer(string)": {
        "params": {
          "": "{public} _userName Name of the customer to be upvoted"
        },
        "return": "{uint8}  on failure if userName doesnt exist error message is thrown, 1 indicates success"
      },
      "addBank(string,address,string)": {
        "params": {
          "": "{uint} kyc_count;"
        },
        "return": "{uint} 1  if this function execution was successful"
      },
      "addCustomer(string,string)": {
        "params": {
          "": "{string} _hash Hash of the customer's ID submitted for KYC"
        }
      },
      "addKycRequest(string,string)": {
        "params": {
          "": "{address} _bankEthAddress The ethAddress of the bank issuing this request"
        },
        "return": "{bool}        True if this function execution was successful"
      },
      "getAccessHistory(string)": {
        "params": {
          "": "{public} _userName"
        },
        "return": "{uint}  bankAddress is returnederror message is thrown if userName doesnt exists"
      },
      "getBankDetails(address)": {
        "params": {
          "": "{public} _ethAddress of the bank"
        },
        "return": "Bank struct is returnederror message is thrown if bankAddress doesnt exists"
      },
      "getBankRating(address)": {
        "params": {
          "": "{public} _ethAddress of the bank"
        },
        "return": "{uint}  bankRating is returnederror message is thrown if bank address not found"
      },
      "getCustomerRating(string)": {
        "params": {
          "": "{public} _userName Name of the customer"
        },
        "return": "{uint}  userRating is returned if the username doesnt match error message is thrown"
      },
      "modifyCustomer(string,bytes,string)": {
        "params": {
          "": "{public} _hash New hash of the updated ID provided by the customer"
        },
        "return": "{uint8}  an error message is thrown if username or password doesnt exists on failure, 1 indicates success"
      },
      "removeBank(address)": {
        "params": {
          "": "{address}  Banks unique Adress"
        },
        "return": "{uint8} A 0 indicates failure, 1 indicates success"
      },
      "removeCustomer(string)": {
        "params": {
          "": "{string} _userName Name of the customer"
        },
        "return": "{uint8} 1 indicates success, otherwise error msg is prompted"
      },
      "removeKYCRequest(string,string)": {
        "params": {
          "": "{string} _userName Name of the customer"
        },
        "return": "{uint8} 1 indicates success, otherwise error msg is prompted"
      },
      "setCustomerPassword(string,bytes)": {
        "params": {
          "": "{public} _password password for the customer"
        },
        "return": "{bool}  true indicates passwordSet, false indicates password not set"
      },
      "upvoteBank(address)": {
        "params": {
          "": "{public} _eththAddress as the input parameter for which vote is casted"
        },
        "return": "{uint8}  on failure if bankaddress is not found error message is thrown, 1 indicates success"
      },
      "viewCustomer(string,bytes)": {
        "params": {
          "": "{public} _password"
        },
        "return": "{string} the hash of the customer data in form of a string"
      }
    }
  },
  "userdoc": {
    "methods": {
      "UpvoteCustomer(string)": {
        "notice": "Add a new upvote from a bank"
      },
      "addBank(string,address,string)": {
        "notice": "Add bank - only admin has the access to add the bank "
      },
      "addCustomer(string,string)": {
        "notice": "Add a new customer"
      },
      "addKycRequest(string,string)": {
        "notice": "Record a new KYC request on behalf of a customer The sender of message call is the bank itself"
      },
      "constructor": "Constructor of the contract. We save the contract's admin as the account which deployed this contract.",
      "getAccessHistory(string)": {
        "notice": "fetch the bank details which made the last changes to the customer data"
      },
      "getBankDetails(address)": {
        "notice": "fetch the bank details "
      },
      "getBankRating(address)": {
        "notice": "get Bank Rating"
      },
      "getCustomerRating(string)": {
        "notice": "get Customer Rating"
      },
      "modifyCustomer(string,bytes,string)": {
        "notice": "Edit customer information"
      },
      "removeBank(address)": {
        "notice": "Remove Bank"
      },
      "removeCustomer(string)": {
        "notice": "Remove customer information"
      },
      "removeKYCRequest(string,string)": {
        "notice": "Remove KYC request"
      },
      "setCustomerPassword(string,bytes)": {
        "notice": "Set password for the customers"
      },
      "upvoteBank(address)": {
        "notice": "Add a new upvote from a bank to a bank update the bankrating"
      },
      "viewCustomer(string,bytes)": {
        "notice": "View customer information"
      }
    }
  }
}